{
    "_format": "hh-sol-artifact-1",
    "contractName": "DLTAToken",
    "sourceName": "contracts/DLTAToken.sol",
    "abi": [
        {
            "inputs": [],
            "stateMutability": "nonpayable",
            "type": "constructor"
        },
        {
            "anonymous": false,
            "inputs": [
                {
                    "indexed": true,
                    "internalType": "address",
                    "name": "owner",
                    "type": "address"
                },
                {
                    "indexed": true,
                    "internalType": "address",
                    "name": "spender",
                    "type": "address"
                },
                {
                    "indexed": false,
                    "internalType": "uint256",
                    "name": "value",
                    "type": "uint256"
                }
            ],
            "name": "Approval",
            "type": "event"
        },
        {
            "anonymous": false,
            "inputs": [
                {
                    "indexed": true,
                    "internalType": "address",
                    "name": "from",
                    "type": "address"
                },
                {
                    "indexed": true,
                    "internalType": "address",
                    "name": "to",
                    "type": "address"
                },
                {
                    "indexed": false,
                    "internalType": "uint256",
                    "name": "value",
                    "type": "uint256"
                }
            ],
            "name": "Transfer",
            "type": "event"
        },
        {
            "inputs": [],
            "name": "_totalSupply",
            "outputs": [
                {
                    "internalType": "uint256",
                    "name": "",
                    "type": "uint256"
                }
            ],
            "stateMutability": "view",
            "type": "function"
        },
        {
            "inputs": [
                {
                    "internalType": "address",
                    "name": "owner",
                    "type": "address"
                },
                {
                    "internalType": "address",
                    "name": "spender",
                    "type": "address"
                }
            ],
            "name": "allowance",
            "outputs": [
                {
                    "internalType": "uint256",
                    "name": "remaining",
                    "type": "uint256"
                }
            ],
            "stateMutability": "view",
            "type": "function"
        },
        {
            "inputs": [
                {
                    "internalType": "address",
                    "name": "spender",
                    "type": "address"
                },
                {
                    "internalType": "uint256",
                    "name": "amount",
                    "type": "uint256"
                }
            ],
            "name": "approve",
            "outputs": [
                {
                    "internalType": "bool",
                    "name": "success",
                    "type": "bool"
                }
            ],
            "stateMutability": "nonpayable",
            "type": "function"
        },
        {
            "inputs": [
                {
                    "internalType": "address",
                    "name": "account",
                    "type": "address"
                }
            ],
            "name": "balanceOf",
            "outputs": [
                {
                    "internalType": "uint256",
                    "name": "balance",
                    "type": "uint256"
                }
            ],
            "stateMutability": "view",
            "type": "function"
        },
        {
            "inputs": [],
            "name": "decimals",
            "outputs": [
                {
                    "internalType": "uint8",
                    "name": "",
                    "type": "uint8"
                }
            ],
            "stateMutability": "view",
            "type": "function"
        },
        {
            "inputs": [],
            "name": "name",
            "outputs": [
                {
                    "internalType": "string",
                    "name": "",
                    "type": "string"
                }
            ],
            "stateMutability": "view",
            "type": "function"
        },
        {
            "inputs": [],
            "name": "symbol",
            "outputs": [
                {
                    "internalType": "string",
                    "name": "",
                    "type": "string"
                }
            ],
            "stateMutability": "view",
            "type": "function"
        },
        {
            "inputs": [],
            "name": "totalSupply",
            "outputs": [
                {
                    "internalType": "uint256",
                    "name": "",
                    "type": "uint256"
                }
            ],
            "stateMutability": "view",
            "type": "function"
        },
        {
            "inputs": [
                {
                    "internalType": "address",
                    "name": "recipient",
                    "type": "address"
                },
                {
                    "internalType": "uint256",
                    "name": "amount",
                    "type": "uint256"
                }
            ],
            "name": "transfer",
            "outputs": [
                {
                    "internalType": "bool",
                    "name": "success",
                    "type": "bool"
                }
            ],
            "stateMutability": "nonpayable",
            "type": "function"
        },
        {
            "inputs": [
                {
                    "internalType": "address",
                    "name": "sender",
                    "type": "address"
                },
                {
                    "internalType": "address",
                    "name": "recipient",
                    "type": "address"
                },
                {
                    "internalType": "uint256",
                    "name": "amount",
                    "type": "uint256"
                }
            ],
            "name": "transferFrom",
            "outputs": [
                {
                    "internalType": "bool",
                    "name": "success",
                    "type": "bool"
                }
            ],
            "stateMutability": "nonpayable",
            "type": "function"
        }
    ],
    "bytecode": "0x608060405234801561001057600080fd5b50604080518082019091526004815263444c544160e01b602082015260009061003990826101ac565b5060408051808201909152600981526822262a20aa37b5b2b760b91b602082015260019061006790826101ac565b506002805460ff1916601217905569d3f2e5d11c861c900000600381905573f39fd6e51aad88f6f4ce6ab8827279cfffb92266600081815260046020527f499528c51356648db37e43952de9993f4899b24e72b85c8d22f7efa043247ceb839055604051919290917fddf252ad1be2c89b69c2b068fc378daa952ba7f163c4a11628f55a4df523b3ef916100fe9190815260200190565b60405180910390a361026b565b634e487b7160e01b600052604160045260246000fd5b600181811c9082168061013557607f821691505b60208210810361015557634e487b7160e01b600052602260045260246000fd5b50919050565b601f8211156101a7576000816000526020600020601f850160051c810160208610156101845750805b601f850160051c820191505b818110156101a357828155600101610190565b5050505b505050565b81516001600160401b038111156101c5576101c561010b565b6101d9816101d38454610121565b8461015b565b602080601f83116001811461020e57600084156101f65750858301515b600019600386901b1c1916600185901b1785556101a3565b600085815260208120601f198616915b8281101561023d5788860151825594840194600190910190840161021e565b508582101561025b5787850151600019600388901b60f8161c191681555b5050505050600190811b01905550565b6106478061027a6000396000f3fe608060405234801561001057600080fd5b506004361061009e5760003560e01c80633eaaf86b116100665780633eaaf86b1461012c57806370a082311461013557806395d89b411461015e578063a9059cbb14610166578063dd62ed3e1461017957600080fd5b806306fdde03146100a3578063095ea7b3146100c157806318160ddd146100e457806323b872dd146100fa578063313ce5671461010d575b600080fd5b6100ab6101b2565b6040516100b89190610475565b60405180910390f35b6100d46100cf3660046104e0565b610240565b60405190151581526020016100b8565b6100ec6102ad565b6040519081526020016100b8565b6100d461010836600461050a565b6102eb565b60025461011a9060ff1681565b60405160ff90911681526020016100b8565b6100ec60035481565b6100ec610143366004610546565b6001600160a01b031660009081526004602052604090205490565b6100ab6103d8565b6100d46101743660046104e0565b6103e5565b6100ec610187366004610568565b6001600160a01b03918216600090815260056020908152604080832093909416825291909152205490565b600180546101bf9061059b565b80601f01602080910402602001604051908101604052809291908181526020018280546101eb9061059b565b80156102385780601f1061020d57610100808354040283529160200191610238565b820191906000526020600020905b81548152906001019060200180831161021b57829003601f168201915b505050505081565b3360008181526005602090815260408083206001600160a01b038716808552925280832085905551919290917f8c5be1e5ebec7d5bd14f71427d1e84f3dd0314c0f7b2291e5b200ac8c7c3b9259061029b9086815260200190565b60405180910390a35060015b92915050565b600080805260046020527f17ef568e3e12ab5b9c7254a8d58478811de00f9e6eb34345acd53bf8fd09d3ec546003546102e691906105eb565b905090565b6001600160a01b0383166000908152600460205260408120805483919083906103159084906105eb565b90915550506001600160a01b03841660009081526005602090815260408083203384529091528120805484929061034d9084906105eb565b90915550506001600160a01b0383166000908152600460205260408120805484929061037a9084906105fe565b92505081905550826001600160a01b0316846001600160a01b03167fddf252ad1be2c89b69c2b068fc378daa952ba7f163c4a11628f55a4df523b3ef846040516103c691815260200190565b60405180910390a35060019392505050565b600080546101bf9061059b565b336000908152600460205260408120805483919083906104069084906105eb565b90915550506001600160a01b038316600090815260046020526040812080548492906104339084906105fe565b90915550506040518281526001600160a01b0384169033907fddf252ad1be2c89b69c2b068fc378daa952ba7f163c4a11628f55a4df523b3ef9060200161029b565b60006020808352835180602085015260005b818110156104a357858101830151858201604001528201610487565b506000604082860101526040601f19601f8301168501019250505092915050565b80356001600160a01b03811681146104db57600080fd5b919050565b600080604083850312156104f357600080fd5b6104fc836104c4565b946020939093013593505050565b60008060006060848603121561051f57600080fd5b610528846104c4565b9250610536602085016104c4565b9150604084013590509250925092565b60006020828403121561055857600080fd5b610561826104c4565b9392505050565b6000806040838503121561057b57600080fd5b610584836104c4565b9150610592602084016104c4565b90509250929050565b600181811c908216806105af57607f821691505b6020821081036105cf57634e487b7160e01b600052602260045260246000fd5b50919050565b634e487b7160e01b600052601160045260246000fd5b818103818111156102a7576102a76105d5565b808201808211156102a7576102a76105d556fea264697066735822122033609e6f1ba37bdbde6ba0f6f82238faf55b1bcf639c3828900b6c254e0a004964736f6c63430008180033",
    "linkReferences": {},
    "deployedLinkReferences": {}
}