{
    "_format": "hh-sol-artifact-1",
    "contractName": "SwapTokenContract",
    "sourceName": "contracts/SwapToken.sol",
    "abi": [
        {
            "inputs": [],
            "name": "DLTA",
            "outputs": [
                {
                    "internalType": "address",
                    "name": "",
                    "type": "address"
                }
            ],
            "stateMutability": "view",
            "type": "function"
        },
        {
            "inputs": [],
            "name": "USDT",
            "outputs": [
                {
                    "internalType": "address",
                    "name": "",
                    "type": "address"
                }
            ],
            "stateMutability": "view",
            "type": "function"
        },
        {
            "inputs": [],
            "name": "dltToken",
            "outputs": [
                {
                    "internalType": "contract IERC20",
                    "name": "",
                    "type": "address"
                }
            ],
            "stateMutability": "view",
            "type": "function"
        },
        {
            "inputs": [],
            "name": "poolFee",
            "outputs": [
                {
                    "internalType": "uint24",
                    "name": "",
                    "type": "uint24"
                }
            ],
            "stateMutability": "view",
            "type": "function"
        },
        {
            "inputs": [],
            "name": "routerAddress",
            "outputs": [
                {
                    "internalType": "address",
                    "name": "",
                    "type": "address"
                }
            ],
            "stateMutability": "view",
            "type": "function"
        },
        {
            "inputs": [
                {
                    "internalType": "uint256",
                    "name": "amountIn",
                    "type": "uint256"
                }
            ],
            "name": "swapExactInputSingle",
            "outputs": [
                {
                    "internalType": "uint256",
                    "name": "amountOut",
                    "type": "uint256"
                }
            ],
            "stateMutability": "nonpayable",
            "type": "function"
        },
        {
            "inputs": [
                {
                    "internalType": "uint256",
                    "name": "amountOut",
                    "type": "uint256"
                },
                {
                    "internalType": "uint256",
                    "name": "amountInMaximum",
                    "type": "uint256"
                }
            ],
            "name": "swapExactOutputSingle",
            "outputs": [
                {
                    "internalType": "uint256",
                    "name": "amountIn",
                    "type": "uint256"
                }
            ],
            "stateMutability": "nonpayable",
            "type": "function"
        },
        {
            "inputs": [],
            "name": "swapRouter",
            "outputs": [
                {
                    "internalType": "contract ISwapRouter",
                    "name": "",
                    "type": "address"
                }
            ],
            "stateMutability": "view",
            "type": "function"
        }
    ],
    "bytecode": "0x60a060405273e592427a0aece92de3edee1f18e0157c05861564608052600080546001600160a01b03191673f39fd6e51aad88f6f4ce6ab8827279cfffb9226617905534801561004e57600080fd5b5060805161071761008d60003960008181610136015281816101a101528181610291015281816103330152818161042301526104c801526107176000f3fe608060405234801561001057600080fd5b50600436106100885760003560e01c8063ab3801051161005b578063ab38010514610116578063c31c9c0714610131578063c4b69a1814610158578063c54e44eb1461016b57600080fd5b8063089fe6aa1461008d57806331abbdd6146100af5780633268cc56146100da57806373bd43ad146100f5575b600080fd5b610096610bb881565b60405162ffffff90911681526020015b60405180910390f35b6000546100c2906001600160a01b031681565b6040516001600160a01b0390911681526020016100a6565b6100c273e592427a0aece92de3edee1f18e0157c0586156481565b6101086101033660046105da565b610186565b6040519081526020016100a6565b6100c273f39fd6e51aad88f6f4ce6ab8827279cfffb9226681565b6100c27f000000000000000000000000000000000000000000000000000000000000000081565b6101086101663660046105f3565b610318565b6100c273dac17f958d2ee523a2206206994597c13d831ec781565b6000805460405163095ea7b360e01b81526001600160a01b037f000000000000000000000000000000000000000000000000000000000000000081166004830152602482018590529091169063095ea7b3906044016020604051808303816000875af11580156101fa573d6000803e3d6000fd5b505050506040513d601f19601f8201168201806040525081019061021e9190610615565b50604080516101008101825273f39fd6e51aad88f6f4ce6ab8827279cfffb92266815273dac17f958d2ee523a2206206994597c13d831ec76020820152610bb88183015230606082015242608082015260a08101849052600060c0820181905260e0820152905163414bf38960e01b81527f00000000000000000000000000000000000000000000000000000000000000006001600160a01b03169063414bf389906102ce908490600401610637565b6020604051808303816000875af11580156102ed573d6000803e3d6000fd5b505050506040513d601f19601f8201168201806040525081019061031191906106a7565b9392505050565b6000805460405163095ea7b360e01b81526001600160a01b037f000000000000000000000000000000000000000000000000000000000000000081166004830152602482018590529091169063095ea7b3906044016020604051808303816000875af115801561038c573d6000803e3d6000fd5b505050506040513d601f19601f820116820180604052508101906103b09190610615565b50604080516101008101825273f39fd6e51aad88f6f4ce6ab8827279cfffb92266815273dac17f958d2ee523a2206206994597c13d831ec76020820152610bb88183015230606082015242608082015260a0810185905260c08101849052600060e08201529051631b67c43360e31b81527f00000000000000000000000000000000000000000000000000000000000000006001600160a01b03169063db3e219890610460908490600401610637565b6020604051808303816000875af115801561047f573d6000803e3d6000fd5b505050506040513d601f19601f820116820180604052508101906104a391906106a7565b9150828210156105d3576000805460405163095ea7b360e01b81526001600160a01b037f000000000000000000000000000000000000000000000000000000000000000081166004830152602482019390935291169063095ea7b3906044016020604051808303816000875af1158015610521573d6000803e3d6000fd5b505050506040513d601f19601f820116820180604052508101906105459190610615565b506000546001600160a01b031663a9059cbb3061056285876106c0565b6040516001600160e01b031960e085901b1681526001600160a01b03909216600483015260248201526044016020604051808303816000875af11580156105ad573d6000803e3d6000fd5b505050506040513d601f19601f820116820180604052508101906105d19190610615565b505b5092915050565b6000602082840312156105ec57600080fd5b5035919050565b6000806040838503121561060657600080fd5b50508035926020909101359150565b60006020828403121561062757600080fd5b8151801515811461031157600080fd5b61010081016106a1828480516001600160a01b03908116835260208083015182169084015260408083015162ffffff16908401526060808301518216908401526080808301519084015260a0828101519084015260c0808301519084015260e09182015116910152565b92915050565b6000602082840312156106b957600080fd5b5051919050565b818103818111156106a157634e487b7160e01b600052601160045260246000fdfea264697066735822122021a9daa22156da3946f6ddadf337831955c57c8f641ac2cfc78d752d8e13d10464736f6c63430008180033",
    "linkReferences": {},
    "deployedLinkReferences": {}
}